:020000040000FA
:060000001EEF27F01200C4
:0600080004EF08F01200F5
:060018000CEF08F01200DD
:061000001EEF27F01200B4
:02100600FFFFEA
:061008001DEF08F01200CC
:021016000001D7
:0610180068EF08F0120071
:101020000200854E0000ED05000010000000704E2B
:0A10300000008E0000001500000013
:06103A00DACFE4FFE2CF73
:10104000DAFFE9CFE4FFEACFE4FFF6CFE4FFF7CF22
:10105000E4FFF5CFE4FFF3CFE4FFF4CFE4FFFACFF2
:10106000E4FF00EE13F00B0EE80403E3EECFE4FF21
:10107000FBD700EE00F0130EE80403E3EECFE4FF2D
:10108000FBD7E65278EC13F0E55200EE12F0130EA7
:10109000E80403E3E5CFEDFFFBD700EE1DF00B0EF8
:1010A000E80403E3E5CFEDFFFBD7E5CFFAFFE5CF9B
:1010B000F4FFE5CFF3FFE5CFF5FFE5CFF7FFE5CF91
:1010C000F6FFE5CFEAFFE5CFE9FFE5CFDAFF110054
:1010D000D8CFE4FFE0CFE4FFE46EDACFE4FFE2CF65
:1010E000DAFFE652E552E5CFDAFFE550E5CFE0FF63
:1010F000E5CFD8FF100007D8DEEC1CF0C7EC1CF0E1
:1011000045D8FED71200800E9B6E700ED36E100E67
:10111000D26ED2AEFED7B50EE96E0F0EEA6E900E0D
:10112000EF6E0F01010E5B6F0F015C6B0F015D6BCA
:10113000896A8A6A8B6A6F0E926EE10E936EFD0E5B
:10114000946E0501ED6BEE6B0501EF6BF06B89980A
:10115000899E8B920501010EF16FE66AE5EC24F0A1
:10116000E552550806E1E66AE66A27EC25F0E55205
:10117000E552800EE66EE66A020EE66E76EC26F02A
:10118000E552E552E552E2EC12F012000501F15190
:1011900002E065EC0FF0200E0001E76E6019E8AE8A
:1011A00002D0E73402D0E750605D03E36050020BE9
:1011B00002E064EF0FF00501ED51EE1102E1000EC7
:1011C00008D0EDC5E9FFEEC5EAFFEF50800B01E066
:1011D000010E000902E019EF0FF005010051550A58
:1011E00002E1FCEF0EF0050A01E1E2D3070A01E19A
:1011F000D1D0040A01E1C7D0180A01E1BFD0080A22
:1012000062E0110A02E006EF0FF00001996B0001A5
:101210009A6B00019B6B00019C6B00019D6B899890
:101220000501F76B0501F46B0501F56B0501F66B24
:101230000501010EAD6F0501AC6B0001995115E17F
:10124000EFEC1CF00501F42B0A0E0501F45D0CE136
:10125000897E0501F46B0501F72B0A0E0501F75D88
:1012600003E143EC10F001D0E8D7C0EC10F0020825
:1012700002E006EF0FF00501EF51F01102E1000E60
:1012800008D0EFC5E9FFF0C5EAFFEF50800B01E0A1
:10129000010E000914E1400EE66E400EE66E050EEA
:1012A000E66E010EE66E010EE66EE6EC1BF0006ED9
:1012B000050EE15E0050F3CFEFF5F4CFF0F5A6ECAC
:1012C00010F006EF0FF00001996B00019A6B00011E
:1012D0009B6B00019C6B00019D6B89980501F76B6E
:1012E0000501F46B0501F56B0501F66B0501010EB7
:1012F000AD6F05010C0EAC6F0001995115E1EFECDB
:101300001CF00501F42B0A0E0501F45D0CE1897E49
:101310000501F46B0501F72B0A0E0501F75D03E1EA
:1013200043EC10F001D0E8D74DEC12F00501EF517D
:10133000F01102E1000E08D0EFC5E9FFF0C5EAFFA9
:10134000EF50800B01E0010E000914E1400EE66E43
:10135000400EE66E050EE66E010EE66E010EE66EBE
:10136000E6EC1BF0006E050EE15E0050F3CFEFF5EA
:10137000F4CFF0F5A6EC10F006EF0FF00501010E2A
:10138000F86F06EF0FF00501F80502E10501F86BB3
:1013900006EF0FF00001996B00019A6B00019B6B47
:1013A00000019C6B00019D6B89980501F76B400E55
:1013B0000501F75D0BE20501F751EA6A400FE96E9E
:1013C000050EEA22EF680501F72BF1D7B9EC24F0FE
:1013D0000501AC6B0501010EAD6F0501F76B050151
:1013E000F46B0501F56B0501F66B0001995116E1EF
:1013F000EFEC1CF00501F42B0A0E0501F45D06E18B
:10140000897E0501F46B0501F72B07D00A0E050153
:10141000F75D03E143EC10F001D0E7D70A0E0501B8
:10142000F75D02E106EF0FF00501AD6B0501EF512D
:10143000F01102E1000E08D0EFC5E9FFF0C5EAFFA8
:10144000EF50800B01E0010E000901E0B0D2050170
:10145000490E406F99C041F59AC042F59BC043F5D3
:101460009CC044F59DC045F5B9EC24F00501F76B2F
:10147000100E0501F75D2BE21F0E0501F725EA6A44
:10148000000FE96E050EEA22EF50E66E0501F751F6
:10149000EA6ACD0FE96E050EEA22E552E750EF6EDB
:1014A0002F0E0501F725EA6A000FE96E050EEA2204
:1014B000EF50E66E0501F751EA6ADD0FE96E050EA1
:1014C000EA22E552E750EF6E0501F72BD1D705016F
:1014D000AC6B0501020EAD6FEFEC1CF0B9EC24F023
:1014E000470E0501015D10E0480E0501015D0CE0AD
:1014F0004D0E0501015D08E0530E0501015D04E09C
:10150000500E0501015D03E101C5BEF504D043ECB9
:1015100010F006EF0FF00501F76B050E0501F75D02
:1015200017E2150E0501F725EA6A000FE96E050EB0
:10153000EA22EF50E66E0501F751EA6ACD0FE96E37
:10154000050EEA22E552E750EF6E0501F72BE5D7CD
:101550000501040EAC6F0501020EAD6FEFEC1CF03F
:10156000B9EC24F005010239F00B0501BD6F0F0E37
:10157000050103150501BD2705010439F00B05011F
:10158000BE6F0F0E050105150501BE2705010639C1
:10159000F00B0501BF6F0F0E050107150501BF27F1
:1015A00005010839F00B0501C06F0F0E0501091583
:1015B0000501C02705010A39F00B0501C16F0F0EA7
:1015C00005010B150501C1270501C26B300E050190
:1015D0000C5D0501F26FF36B0501100EF303F3CF01
:1015E000F3F5270EF203F350F327100EF203F3CFB7
:1015F000F2F5F450F327300E05010D5D006E016A1F
:10160000E80E0102F3CF01F0030E0002F3500126B1
:10161000E80E0002F3CF00F0F4500126005005015F
:10162000F22701500501F32305010E51300811E2A4
:10163000300E05010E5D05010E6F05010E5109E02A
:10164000640E0501F227000E0501F32305010E07C4
:10165000F4D7300E05010F5D0A0DF350006E016ADC
:1016600000500501F22701500501F323300E05015A
:10167000105D006E016A00500501F227015005015E
:10168000F323F3C500F0016A00C0C3F50501F25170
:101690000501C46F0501080EF76F0C0E0501F75D1B
:1016A00017E2090E0501F725EA6A000FE96E050E3B
:1016B000EA22EF50E66E0501F751EA6ABD0FE96EC6
:1016C000050EEA22E552E750EF6E0501F72BE5D74C
:1016D0000501080EAC6F0501020EAD6FEFEC1CF0BA
:1016E000B9EC24F0B9EC24F00501AC6B0501010E56
:1016F000AD6F0001996B0501F76B0501F46B0501F6
:10170000F56B0501F66B0001995116E1EFEC1CF049
:101710000501F42B0A0E0501F45D06E1897E050141
:10172000F46B0501F72B07D00A0E0501F75D03E105
:1017300043EC10F001D0E7D70A0E0501F75D01E197
:1017400065D3000199510501415D14E100019A51F1
:101750000501425D0FE100019B510501435D0AE176
:1017600000019C510501445D05E100019D51050109
:10177000455D03E043EC10F049D3B9EC24F00501DA
:10178000040EAC6F0501010EAD6F0001996B0501F0
:10179000F76B0501F46B0501F56B0501F66B0001B4
:1017A000995116E1EFEC1CF00501F42B0A0E05012E
:1017B000F45D06E1897E0501F46B0501F72B07D086
:1017C0000A0E0501F75D03E143EC10F001D0E7D705
:1017D0000A0E0501F75D01E119D3B9EC24F005010A
:1017E000080EAC6F0501010EAD6F0001996B05018C
:1017F000F76B0501F46B0501F56B0501F66B000154
:10180000995116E1EFEC1CF00501F42B0A0E0501CD
:10181000F45D06E1897E0501F46B0501F72B07D025
:101820000A0E0501F75D03E143EC10F001D0E7D7A4
:101830000A0E0501F75D01E1E9D2F00E0501BD15C3
:10184000006E05010239F00B005C01E085D00F0E3F
:101850000501BD15016E0F0E05010315015C01E0C8
:101860007BD0F00E0501BE15026E05010439F00BA8
:10187000025C72E10F0E0501BE15036E0F0E05012D
:101880000515035C69E1F00E0501BF15046E050145
:101890000639F00B045C60E10F0E0501BF15056E03
:1018A0000F0E05010715055C57E1F00E0501C01587
:1018B000066E05010839F00B065C4EE10F0E0501BE
:1018C000C015076E0F0E05010915075C45E1F00E06
:1018D0000501C115086E05010A39F00B085C3CE1F1
:1018E0000F0E0501C115096E0F0E05010B15095CE0
:1018F00033E10501C25130E10501C3510A6E0B6AA3
:10190000F3C50CF00D6A0C500A1802E10D500B18CB
:1019100023E10501C4510E6E0F6AFF0E0501F21599
:10192000106E116A10500E1802E111500F1814E1D8
:10193000050111510501C55D0FE1050112510501B8
:10194000C65D0AE1050113510501C75D05E1050109
:1019500014510501C85D02E096DB58D20501EF5134
:10196000F01102E1000E08D0EFC5E9FFF0C5EAFF73
:10197000EF50800B01E0010E000918E1FF0E050198
:10198000405D14E0400EE66E400EE66E050EE66E1B
:10199000010EE66E010EE66EE6EC1BF0006E050E23
:1019A000E15E0050F3CFEFF5F4CFF0F5CFDB2ED2B0
:1019B0000001996B00019A6B00019B6B00019C6B0D
:1019C00000019D6B89980501F76B400E0501F75DDD
:1019D0000BE20501F751EA6A400FE96E050EEA22B3
:1019E000EF680501F72BF1D7B9EC24F005010C0ED7
:1019F000AC6F0501010EAD6F0501F76B0501F46BCE
:101A00000501F56B0501F66B0001995114E1EFEC4E
:101A10001CF00501F42B0A0E0501F45D0BE1897E33
:101A20000501F46B0501F72B0A0E0501F75D02E1D4
:101A30002ADB01D0E9D70501AD6B0501EF51F011AB
:101A400002E1000E08D0EFC5E9FFF0C5EAFFEF5054
:101A5000800B01E0010E000901E0CDD10501490E26
:101A6000406F99C041F59AC042F59BC043F59CC0B8
:101A700044F59DC045F5B9EC24F005010139F00BA2
:101A80000501BD6F0F0E050102150501BD270501FA
:101A90000339F00B0501BE6F0F0E0501041505019A
:101AA000BE2705010539F00B0501BF6F0F0E0501BB
:101AB00006150501BF2705010739F00B0501C06FA9
:101AC0000F0E050108150501C02705010939F00BA6
:101AD0000501C16F0F0E05010A150501C12705019A
:101AE000C26B05010B39F00B0501C36F0F0E050129
:101AF0000C150501C3270DC5C7F50EC5C4F5300E7D
:101B000005010F5D0501F26FF36B0501100EF30384
:101B1000F3CFF3F5270EF203F350F327100EF20381
:101B2000F3CFF2F5F450F327300E0501105D006E8F
:101B3000016AE80E0102F3CF01F0030E0002F35038
:101B40000126E80E0002F3CF00F0F4500126005009
:101B50000501F22701500501F32305011151300859
:101B600011E2300E0501115D0501116F05011151E2
:101B700009E0640E0501F227000E0501F3230501BB
:101B80001107F4D7300E0501125D0A0DF350006EF7
:101B9000016A00500501F22701500501F323300EC0
:101BA0000501135D006E016A00500501F227015026
:101BB0000501F323F3C500F0016A00C0C5F5050176
:101BC000F2510501C66F14C5C8F5420E0501145D3A
:101BD00004E10501020EAD6F02D055DA17D10501FF
:101BE0000C0EAC6FEFEC1CF0B9EC24F005010C0E00
:101BF000AC6F0501010EAD6F0001996B0501F76B2C
:101C00000501F46B0501F56B0501F66B00019951B7
:101C100015E1EFEC1CF00501F42B0A0E0501F45D53
:101C200006E1897E0501F46B0501F72B06D00A0E4B
:101C30000501F75D02E127DA01D0E8D70A0E0501B8
:101C4000F75D01E1E3D0000199510501415D14E127
:101C500000019A510501425D0FE100019B51050110
:101C6000435D0AE100019C510501445D05E100016D
:101C70009D510501455D02E006DAC8D0F00E050170
:101C8000BD15006E05010139F00B005C01E088D044
:101C90000F0E0501BD15016E0F0E05010215015C49
:101CA00001E07ED0F00E0501BE15026E050103397C
:101CB000F00B025C75E10F0E0501BE15036E0F0EF1
:101CC00005010415035C6CE1F00E0501BF15046EFF
:101CD00005010539F00B045C63E10F0E0501BF152A
:101CE000056E0F0E05010615055C5AE1F00E0501A3
:101CF000C015066E05010739F00B065C51E10F0EA9
:101D00000501C015076E0F0E05010815075C48E1B7
:101D1000F00E0501C115086E05010939F00B085CCC
:101D20003FE10F0E0501C115096E0F0E05010A15E1
:101D3000095C36E10F0E05010C150A6E05010B3921
:101D4000F00B0A240501C35D2BE105010E510501CD
:101D5000C45D26E10501C5510B6E0C6AF3C50DF09B
:101D60000E6A0D500B1802E10E500C1819E1050116
:101D7000C6510F6E106AFF0E0501F215116E126A40
:101D800011500F1802E1125010180AE105010D510F
:101D90000501C75D05E1050114510501C85D02E0BB
:101DA00072D934D00501EF51F01102E1000E08D0D4
:101DB000EFC5E9FFF0C5EAFFEF50800B01E0010E2F
:101DC000000918E1FF0E0501405D14E0400EE66ECB
:101DD000400EE66E050EE66E010EE66E010EE66E34
:101DE000E6EC1BF0006E050EE15E0050F3CFEFF560
:101DF000F4CFF0F5ABD90AD0550EE66EE66A27ECC3
:101E000025F0E552E552A2D9DBDB00D0400EE66EAC
:101E1000000EE66E050EE66EE66A010EE66EE6EC74
:101E20001BF0006E050EE15E0050F3CFEDF5F4CF30
:101E3000EEF50501F85105E10501F9690F0EFA6F9C
:101E400043D00501F80540E10501F92B000EFA2306
:101E50000501FF0ED880F9550F0EFA550BE205016A
:101E6000F96BFA6B0501010EAD6F0501AC6BEFEC80
:101E70001CF0897E0001995127E082D9020824E1F3
:101E80000501EF51F01102E1000E08D0EFC5E9FFA6
:101E9000F0C5EAFFEF50800B01E0010E000914E1EC
:101EA000400EE66E400EE66E050EE66E010EE66E24
:101EB000010EE66EE6EC1BF0006E050EE15E0050D2
:101EC000F3CFEFF5F4CFF0F512000501FB51FC1153
:101ED00005E10501100EFB6F270EFC6F0501FB07E6
:101EE000000EFC5B60A207D089980501FB51FC1134
:101EF00001E1897E2AD00001605103E1898E899831
:101F000024D00001600503E1898E89881ED0020E6D
:101F10000001605D03E1898E898817D0040E0001FD
:101F2000605D03E1898E899810D0100E0001605D1C
:101F300007E10501FB51FC1101E1897E899805D07B
:101F4000200E0001605D01E189881200120012007C
:101F50001200120065EC25F0120012001E0EE66E53
:101F6000010EE66E3FEC1BF0E552E552400EE66EC8
:101F7000000EE66E050EE66EE66A010EE66EE6EC13
:101F80001BF0006E050EE15E0050F3CFEDF5F4CFCF
:101F9000EEF5120000017F0525E10001800522E138
:101FA000A394D5DF60920001806B0001100EAD6F2D
:101FB0000E0EAE6F0001AD07000EAE5B0001AD511D
:101FC000AE11F8E160840001080EAD6F070EAE6F30
:101FD0000001AD07000EAE5B0001AD51AE11F8E19E
:101FE0006094A3841200D9CFE6FFE1CFD9FFFD0EA4
:101FF000DBCF19F0FE0EDBCF1AF0050E191801E148
:102000001A5039E0E868191802E17F0E1A1831E019
:10201000030E191801E11A502AE0020E191801E105
:102020001A5023E0010E191801E11A501CE0740E39
:10203000191801E11A5015E0750E191801E11A502E
:102040000EE0730E191801E11A5007E0720E19180C
:1020500001E11A5001E010D010D07ADF0ED076DF07
:102060000CD075DF0AD07ADF08D077DF06D072DFB8
:1020700004D06FDF02D001D000D0010E00D0E552B5
:10208000E7CFD9FF1200D9CFE6FFE1CFD9FFE65263
:102090008B828988FA0EE66EE0EC26F0E552FA0EA5
:1020A000E66EE0EC26F0E552FA0EE66EE0EC26F085
:1020B000E5528B928998DF6A400EDF5C10E2DF50B8
:1020C000EA6A000FE96E050EEA22EF68DF50EA6A5D
:1020D000400FE96E050EEA22EF68DF2AEDD7050111
:1020E000AD6B0501460E406F0501410E416F0501C4
:1020F000490E426F05014C0E436F0501EF51F0117F
:1021000002E1000E08D0EFC5E9FFF0C5EAFFEF508D
:10211000800B01E0010E000914E1400EE66E400E56
:10212000E66E050EE66E010EE66E010EE66EE6EC5C
:102130001BF0006E050EE15E0050F3CFEFF5F4CF1B
:10214000F0F5E552E552E7CFD9FF12000501F76B34
:10215000030E0501F75D11E28B828988280EE66E79
:10216000E0EC26F0E5528B928998640EE66EE0EC86
:1021700026F0E5520501F72BEBD70501F76B1200AE
:102180000501490E406F99C041F59AC042F59BC0C8
:1021900043F59CC044F59DC045F50501F76B100E55
:1021A0000501F75D17E20501F751EA6ADD0FE96EF7
:1021B000050EEA22EF50E66E300E0501F725EA6AB9
:1021C000400FE96E050EEA22E552E750EF6E050179
:1021D000F72BE5D70501010EAD6F0501040EAC6FBD
:1021E0000501F76B0501F46B0501F56B0501F66B55
:1021F0000001996B0001995115E1EFEC1CF005010C
:10220000F42B0A0E0501F45D0CE1897E0501F46BE7
:102210000501F72B0A0E0501F75D03E134DF010E1E
:102220003BD1E8D70501470E466F0501F76B100E4D
:102230000501F75D3EE20501F751EA6ABD0FE96E5F
:10224000050EEA22EF50470828E00501F751EA6A37
:10225000BD0FE96E050EEA22EF5048081EE00501A9
:10226000F751EA6ABD0FE96E050EEA22EF504D08FC
:1022700014E00501F751EA6ABD0FE96E050EEA2286
:10228000EF5053080AE00501F751EA6ABD0FE96E05
:10229000050EEA22EF50500809E10501F751EA6AFC
:1022A000BD0FE96E050EEA22EFCF47F50501F72BCA
:1022B000BED7CDC560F5CEC561F5CFC562F5D0C539
:1022C00063F5D1C564F50501010EAD6F0501080E7A
:1022D000AC6F0501F76B0501F46B0501F56B0501AA
:1022E000F66B0001996B0001995115E1EFEC1CF0C0
:1022F0000501F42B0A0E0501F45D0CE1897E050150
:10230000F46B0501F72B0A0E0501F75D03E1BBDE57
:10231000010EC2D0E8D70501540E486F0501BD3942
:102320000F0B300F0501496F0F0E0501BD15300F62
:1023300005014A6F0501BE390F0B300F05014B6FC8
:102340000F0E0501BE15300F05014C6F0501BF3999
:102350000F0B300F05014D6F0F0E0501BF15300F2C
:1023600005014E6F0501C0390F0B300F05014F6F8E
:102370000F0E0501C015300F0501506F0501C13961
:102380000F0B300F0501516F0F0E0501C115300FF6
:102390000501526F0501C2390F0B300F0501536F54
:1023A0000F0E0501C215300F0501546F0501410ED6
:1023B000556F0501300E566F0501300E576F050140
:1023C000300E586F0501300E596F0501300E5A6FEF
:1023D0000501C3510501F26FF36BF2C5F3F5050179
:1023E000F26B0501C451006E016A00500501F2272D
:1023F00001500501F32305010F0ED880F255270E79
:10240000F35509E2100E0501F25F270E0501F35B9B
:102410000501562BF0D70501E70ED880F255030EC3
:10242000F35509E2E80E0501F25F030E0501F35BC7
:102430000501572BF0D70501630ED880F255000E29
:10244000F35509E2640E0501F25F000E0501F35B2E
:102450000501582BF0D70501090ED880F255000E62
:10246000F35509E20A0E0501F25F000E0501F35B68
:102470000501592BF0D7300E0501F22505015A6FE1
:10248000C5C55BF5C6C55CF5C7C55DF5C8C55EF5D8
:102490000501AD6B020E00D012000501490E406F20
:1024A00099C041F59AC042F59BC043F59CC044F5E4
:1024B0009DC045F50501450E466FBDC547F5BEC536
:1024C00048F5BFC549F5C0C54AF5C1C54BF505017D
:1024D000550E4C6FC2C54DF50501440E4E6FC4C577
:1024E0004FF5C5C550F50501430E516FC6C552F5F0
:1024F0000501470E536FC7C554F50501460E556FCC
:10250000C8C556F5C9C557F50501500E586FCAC55F
:1025100059F505014D0E5A6FCDC55BF5CEC55CF57D
:10252000CFC55DF5D0C55EF50501540E5F6FD1C511
:1025300060F5D2C561F5D3C562F5D4C563F5050173
:10254000570E646FD5C565F5D6C566F5D7C567F571
:10255000D8C568F50501480E696FD9C56AF5DAC5B1
:102560006BF5DBC56CF5DCC56DF50501460E6E6FD0
:10257000DDC56FF5DEC570F5DFC571F5E0C572F537
:102580000501530E736FE1C574F5E2C575F5E3C53A
:1025900076F5E4C577F505014E0E786FE5C579F55A
:1025A000E6C57AF5E7C57BF5E8C57CF505017F0E44
:1025B0007D6F05017F0E7E6F05017F0E7F6F12001C
:0425C000FF00120006
:0C25C400D9CFE6FFE1CFD9FFE652A39487
:1025D000676A656A6A6A010EE66EE66AE66A6B0E0B
:1025E000E66E0F0EE66EC6EC26F0006E050EE15E9E
:1025F0000050160E626E9F0E666E7B0E646EDF6A72
:10260000DF50006E016A080E005C000E015810E2F7
:10261000DF50040DF3CFE9FFF4CFEAFF000EE92607
:10262000040EEA22EE6AEE6AEE6AEE6ADF2AE8D764
:10263000608C636A6098609C65A609D0659600010D
:10264000736B0001786B0001796B7A6BF5D7000131
:10265000010E8A6F0001010E8B6F00018C6B00016F
:102660008D6B0001806BDF6A020EDF5C26E2EA6A96
:10267000DF34FE0BEA36E96E6B0EE926000EEA2225
:10268000EE6AED6AEA6ADF34FE0BEA36E96E670E3F
:10269000E926000EEA22EE6AED6ADF50EA6A840F4C
:1026A000E96E000EEA22EF6ADF50EA6A860FE96EF1
:1026B000000EEA22EF6ADF2AD7D70001080E6B6FFF
:1026C000040E6C6F160E6A6E0401200E026F040E6B
:1026D000036F0401080E016F0401840E006F0001F6
:1026E000616B0001606BE552E552E7CFD9FF120044
:1026F000D9CFE6FFE1CFD9FFE6520001600508E13E
:1027000060BA06D0656A648064880001020E606F5A
:102710006550040B05E06450040B02E06594CBD8CF
:1027200060A202D0A49493D06550010B09E06450DC
:10273000010B06E047DFA3840001040E606F659083
:102740006550100B05E06450100B02E09ED86598B0
:1027500065AC12D064AC0FD0010EE66EE66A000ED6
:10276000E66EE66A730EE66EE66AF3EC0FF0006E54
:10277000060EE15E0050659C6550200B04E064503D
:10278000200B01E069D86550020B13E06450020B86
:1027900010E0010EE66EE66A000EE66EE66AE66896
:1027A0007F0EE66EF3EC0FF0006E060EE15E005059
:1027B000676A040E0001E76E6019E8AE02D0E734E4
:1027C00002D0E750605D02E2A49441D064A63ED0FE
:1027D000DF6A040EDF5C3AE265A635D061CF81F096
:1027E00000018151780BE842E842E8420001826F23
:1027F0006596000181B509D000018251EA6A860F11
:10280000E96E000EEA22EF7008D000018251EA6AF8
:10281000840FE96E000EEA22EF700001825102E19E
:1028200062D810D0000EE66EE66A810EE66E000EEB
:10283000E66E720EE66EE66AF3EC0FF0006E060EC0
:10284000E15E005001D002D0DF2AC3D7A494E55244
:10285000E552E7CFD9FF12006AA015D063C0E9FFA7
:1028600064C0EAFFEF5080080DE16BC0E9FF6CC067
:10287000EAFFEF50840806E163C0E9FF64C0EAFFA5
:102880008C0EEF6E6A90659A12006484659860827F
:102890000001010E806F000EE66EE66A000EE66E25
:1028A000E66A750EE66EE66AF3EC0FF0006E060E51
:1028B000E15E005012000001806B000EE66EE66AD9
:1028C000000EE66EE66A740EE66EE66AF3EC0FF052
:1028D000006E060EE15E00506092649465A402D022
:1028E0006594FCD71200D9CFE6FFE1CFD9FFE652BD
:1028F000FD0E0001811558E17E0E00018115E840B2
:102900007F0B040DF3CF63F0F4CF64F0000E0001F1
:102910006327040E0001642363C065F064C066F0A1
:102920000001657563C0E9FF64C0EAFFEF503C0B2E
:10293000E842E8420D0836E1DF6A080EDF5C24E277
:1029400063C0E9FF64C0EAFF020EE926000EEA2236
:10295000EE50EFCFEAFFE96EEF50E66EDF50EA6A25
:10296000200FE96E040EEA22E552E750EF6E63C0D5
:10297000E9FF64C0EAFF020EE926000EEA22EE2A11
:10298000000EEF22DF2AD9D763C0E9FF64C0EAFF57
:10299000020EE926000EEA22200EEE6E040EED6E07
:1029A0000ED801D047D806D0FD0E000181150408CD
:1029B00001E169D8E552E552E7CFD9FF12000001E5
:1029C0006F6B0001896B00018C6B00018D6B000146
:1029D000836B0001706B6BC0E9FF6CC0EAFFEF9E78
:1029E00000016B756BC0E9FF6CC0EAFFEF9E000150
:1029F0006B7565C0E9FF66C0EAFFEF9E0001736B6F
:102A00000001746B756B0001786B0001796B7A6B58
:102A10009BD8000EE66EE66A000EE66EE66A030ECE
:102A2000E66EE66AF3EC0FF0006E060EE15E005013
:102A3000C4DB1200020E0001705D03E1B9EC19F075
:102A400021D00001706B000183511AE165C0E9FFDC
:102A500066C0EAFFEE52080EEF6E65C0E9FF66C081
:102A6000EAFF020EE926000EEA22200EEE6E040EA8
:102A7000ED6E65C0E9FF66C0EAFF8C0EEF6E02D016
:102A80000001836B1200D9CFE6FFE1CFD9FFE652F8
:102A90006BC0E9FF6CC0EAFFEF50400B01E0010E94
:102AA000DF6E00016B75080E0001605D0BE122C452
:102AB00063FF635004E00001100E606F03D000015B
:102AC000040E606F0001700528E16BC0E9FF6CC067
:102AD000EAFF020EE926000EEA22280EEE6E040E30
:102AE000ED6ED6DB020E00016F5D07E16BC0E9FF02
:102AF0006CC0EAFF840EEF6E0FD0DF5007E16BC0B1
:102B0000E9FF6CC0EAFFC80EEF6E06D06BC0E9FFAC
:102B10006CC0EAFF880EEF6E12D0000178AF0DD0C6
:102B200000017B517C1107E005D07CC0FAFF000159
:102B30007B51F96EFADF0001789F0001706BE5525E
:102B4000E552E7CFD9FF120004012051600BE842A3
:102B5000E842E842E842E842000901E065D00401A9
:102B600021510C0A60E00B0A4EE00C0A40E0010A19
:102B70002BE00B0A27E0020A25E0030A21E0080AFD
:102B800012E0010A0DE00F0A09E0030A01E04BD050
:102B90000001738F0001080E606F46D03ADA44D00E
:102BA00061EC1AF041D00001610E716F000E726F7E
:102BB000000173810001010E746F0001738F34D026
:102BC0008EDA32D032D830D0040124510001716F36
:102BD000726B620E00017127000E0001722300016A
:102BE00073810001010E746F0001738F1DD000010D
:102BF000738F04012451EA6A620FE96E000EEA2223
:102C000022C4EFFF11D0000EE66EE66A000EE66EFB
:102C1000E66A020EE66EE66AF3EC0FF0006E060E50
:102C2000E15E005001D000D01200D9CFE6FFE1CF25
:102C3000D9FF050EE1260401220511E1040120510E
:102C40001F0B00090CE10001738F030E0401215DCD
:102C500004E10001010E7F6F02D000017F6B0401CF
:102C6000225101E031D1040120511F0B020801E083
:102C70002BD1040124510F0B000901E125D10401DE
:102C800024510F0B010801E21FD1200E0001605DED
:102C900001E01AD10001738F040124BF1CD004018C
:102CA00024510F0BE96EEA6AD890E936EA36670ECE
:102CB000E926000EEA22EECFDEFFEDCFDDFF0401B4
:102CC00024510F0BEA6A860FE96E000EEA22020E0B
:102CD000EFCFDBFF1BD0040124510F0BE96EEA6A32
:102CE000D890E936EA366B0EE926000EEA22EECFDE
:102CF000DEFFEDCFDDFF040124510F0BEA6A840FE4
:102D0000E96E000EEA22020EEFCFDBFFD950020F70
:102D1000E96EDACFEAFFEF50010B03E1000EDB941E
:102D200001D0DF84040124BF11D0040124510F0B12
:102D3000E96EEA6AD890E936EA36670EE926000EAF
:102D4000EA22DECFEEFFDDCFEDFF10D004012451EB
:102D50000F0BE96EEA6AD890E936EA366B0EE9267F
:102D6000000EEA22DECFEEFFDDCFEDFF030E040101
:102D7000215D26E1DECFE9FFDDCFEAFFEF50800BDA
:102D800016E0040124BF0AD0040124510F0BEA6AA3
:102D9000860FE96E000EEA22EF8209D00401245169
:102DA0000F0BEA6A840FE96E000EEA22EF82840EAE
:102DB000006EDECFE9FFDDCFEAFF0050EF1284D0D6
:102DC000DF74DECFE9FFDDCFEAFFEF50800B1BE0C1
:102DD000DECFE9FFDDCFEAFFEF9EDECFE9FFDDCFFB
:102DE000EAFFEF8C020EE66EE66ADECFE6FFDDCF8D
:102DF000E6FF050EE66EE66AF3EC0FF0006E060ED7
:102E0000E15E005005D0DECFE9FFDDCFEAFFEF8CB9
:102E1000DF74D950020FE96EDACFEAFFEF50020BF0
:102E200007E1DECFE9FFDDCFEAFFEF50800B2FE0B7
:102E3000040124BF0AD0040124510F0BEA6A860F53
:102E4000E96E000EEA22EF9209D0040124510F0B23
:102E5000EA6A840FE96E000EEA22EF923B0E006EE2
:102E6000DECFE9FFDDCFEAFF0050EF16020EE66E7F
:102E7000E66ADECFE6FFDDCFE6FF050EE66EE66A28
:102E8000F3EC0FF0006E060EE15E005008D03B0E32
:102E9000006EDECFE9FFDDCFEAFF0050EF16040140
:102EA00024510F0B016A6A0F006E0F0E0122030EF0
:102EB00000C0DBFF040E01C0DBFF030EDBCFE9FF28
:102EC000040EDBCFEAFFEF90050EE15C02E2E16A5F
:102ED000E552E16EE552E7CFD9FF120000018A51B9
:102EE00054E10001010E8A6F00018B514EE1000197
:102EF000010E8B6F020E0001705D0DE16BC0E9FFEA
:102F00006CC0EAFFEE52EF6A6BC0E9FF6CC0EAFFEB
:102F1000C80EEF6E3AD00001700537E10001836BF7
:102F200063C0E9FF64C0EAFFEE52080EEF6E63C0B3
:102F3000E9FF64C0EAFF020EE926000EEA22200E35
:102F4000EE6E040EED6E63C0E9FF64C0EAFF840E0E
:102F5000EF6E0001010E836F65C0E9FF66C0EAFFF6
:102F6000EE52080EEF6E65C0E9FF66C0EAFF020E82
:102F7000E926000EEA22200EEE6E040EED6E65C00C
:102F8000E9FF66C0EAFF800EEF6E120000018C6B55
:102F900000018D6B020E0001705D1AE165C0E9FF52
:102FA00066C0EAFFEE52080EEF6E65C0E9FF66C02C
:102FB000EAFF020EE926000EEA22280EEE6E040E4B
:102FC000ED6E65C0E9FF66C0EAFFC80EEF6E20D067
:102FD000000174510401265D000175510401275957
:102FE00004E226C474F027C475F052D96BC0E9FF1F
:102FF0006CC0EAFF020EE926000EEA22280EEE6EF1
:10300000040EED6E6BC0E9FF6CC0EAFFC80EEF6EF8
:103010001200800E0401205D61E10001C00E736F9B
:1030200004012351030A35E0010A0DE0030A01E01F
:1030300052D000015E0E716F4C0E726F120E0001C5
:10304000746F756B4BD004012251F66EF76AD890FD
:10305000F636F736E30EF6264C0EF7220900F5CFCA
:1030600071F00A00F5CF72F0020E0001F76A7125C7
:10307000F66E7251F7220800F5CF74F0030E0001CE
:10308000F76A7125F66E7251F7220800F5CF75F0D8
:1030900025D0030E0401225D1BE204012251F66ECD
:1030A000F76AD890F636F736E50EF6264C0EF7227C
:1030B0000900F5CF71F00A00F5CF72F071C0F6FF8C
:1030C00072C0F7FF0800F5500001746F756B02D0F5
:1030D0000001736B03D00001736B00D01200D9CFD5
:1030E000E6FFE1CFD9FF020EE1260401286B0401BF
:1030F000296B040120511F0B020A10E0030A0BE0A8
:10310000010A01E043D00001738F00017F0502E155
:10311000040128833BD00001738F38D00001738FE6
:10312000040124BF11D0040124510F0BE96EEA6A97
:10313000D890E936EA36670EE926000EEA22EECF8D
:10314000DEFFEDCFDDFF10D0040124510F0BE96E3F
:10315000EA6AD890E936EA366B0EE926000EEA22D2
:10316000EECFDEFFEDCFDDFFDECFE9FFDDCFEAFF03
:10317000EF50800B0AE0DECFE9FFDDCFEAFFEF5032
:10318000040B03E00401010E286F00D0000173AFAF
:103190000AD00001280E716F040E726F0001738156
:1031A0000001020E746F020EE15C02E2E16AE55278
:1031B000E16EE552E7CFD9FF12006098000173BFBE
:1031C0002FD0000178AF0CD00001020E706F00010B
:1031D0008D5101E1DBDE00018B6B00018A6B1FD09A
:1031E00065C0E9FF66C0EAFFEE52080EEF6E65C0EB
:1031F000E9FF66C0EAFF020EE926000EEA22200E71
:10320000EE6E040EED6E65C0E9FF66C0EAFF8C0E3F
:10321000EF6E6BC0E9FF6CC0EAFF840EEF6E37D033
:10322000040120AF10D00001010E706F00018C511D
:1032300001E1ACDE00018B6B00018A6B000189515A
:1032400001E14CDE24D00001020E706F65C0E9FF81
:1032500066C0EAFFEE52080EEF6E65C0E9FF66C079
:10326000EAFF020EE926000EEA22200EEE6E040EA0
:10327000ED6E65C0E9FF66C0EAFF840EEF6E0001E7
:103280008B6B00018A6B0001895101E127DE12007E
:10329000D9CFE6FFE1CFD9FFE652080EDF6E00017D
:1032A000080E745D000E75590FE274C0DFFF000157
:1032B0006F5104E10001010E6F6F06D000016F0530
:1032C00003E10001020E6F6FDF50006E016A0050D3
:1032D0000001745D0001746F015000017559000117
:1032E000756F6BC0E9FF6CC0EAFFEE52DFCFEFFFF6
:1032F0000001280E7D6F040E7E6F000173B11BD09C
:10330000DF5018E0000171C0F6FF72C0F7FF712BAB
:10331000000E72230800F550E66E00017DC0E9FF43
:103320007EC0EAFF7D2B000E7E23E552E750EF6E54
:10333000DF06E6D719D0DF5017E0000171C0E9FFC2
:1033400072C0EAFF712B000E7223EF50E66E00018F
:103350007DC0E9FF7EC0EAFF7D2B000E7E23E55293
:10336000E750EF6EDF06E7D7E552E552E7CFD9FF2A
:103370001200D9CFE6FFE1CFD9FF020EE12663C0EC
:10338000E9FF64C0EAFFEE52EFCFDFFFDFCF00F0CE
:1033900000500001795D000E7A5902E279C0DFFF2A
:1033A000DF50006E016A00500001795D0001796F05
:1033B000015000017A5900017A6F010EDB6ADF507B
:1033C000F36E010EDBCFF4FFF350F45C17E2010E55
:1033D000DB50EA6A280FE96E040EEA22EF50E66E2F
:1033E000000176C0E9FF77C0EAFF762B000E772355
:1033F000E552E750EF6E010EDB2AE1D70001000E27
:10340000D8807955000E7A5528E265C0E9FF66C07C
:10341000EAFFEE52080EEF6E65C0E9FF66C0EAFFF4
:10342000020EE926000EEA22280EEE6E040EED6E64
:1034300063C0E9FF64C0EAFFEF50400B07E165C0DD
:10344000E9FF66C0EAFFC80EEF6E06D065C0E9FF6F
:1034500066C0EAFF880EEF6E2AD065C0E9FF66C03D
:10346000EAFFEE52080EEF6E65C0E9FF66C0EAFFA4
:10347000020EE926000EEA22200EEE6E040EED6E1C
:1034800065C0E9FF66C0EAFF840EEF6E00017B5164
:103490007C1107E005D07CC0FAFF00017B51F96E7A
:1034A000FADF0001789F0001895101E117DD020E6A
:1034B000E15C02E2E16AE552E16EE552E7CFD9FF55
:1034C0001200D9CFE6FFE1CFD9FFE6520001738F9A
:1034D000010EE66EE66AE66A6B0EE66E0F0EE66EAB
:1034E000C6EC26F0006E050EE15E0050DF6ADF508C
:1034F000006E016A080E005C000E015810E2DF50F9
:10350000040DF3CFE9FFF4CFEAFF000EE926040E25
:10351000EA22EE6AEE6AEE6AEE6ADF2AE8D7608C8B
:10352000DF6A020EDF5C10E2DF50EA6A840FE96EA8
:10353000000EEA22EF6ADF50EA6A860FE96E000E9B
:10354000EA22EF6ADF2AEDD7010EE66EE66AE66A46
:10355000620EE66E000EE66EC6EC26F0006E050EFC
:10356000E15E0050609C0001080E6B6F040E6C6FF2
:103570000001000E636F040E646F63C065F064C0E9
:1035800066F022C461F00001615104E10001100EF7
:10359000606F13D0010EE66EE66A610EE66E000EF5
:1035A000E66E010EE66EE66AF3EC0FF0006E060EB4
:1035B000E15E00500001200E606FE552E552E7CF5A
:1035C000D9FF1200D9CFE6FFE1CFD9FF020EE126E5
:1035D000000EDE6E040EDD6EFD0EDB50E824026E82
:1035E000FE0EDB50040DF3500224040DF3CF00F067
:1035F000F4CF01F0D9CFE9FFDACFEAFF0050EE2691
:103600000150ED22DECFE9FFDDCFEAFFEF9EFD0E98
:10361000DB500FE1FE0EEA6ADB34FE0BEA36E96EA0
:10362000670EE926000EEA22DECFEEFFDDCFEDFFCA
:103630000ED0FE0EEA6ADB34FE0BEA36E96E6B0E44
:10364000E926000EEA22DECFEEFFDDCFEDFFDECF72
:10365000E9FFDDCFEAFFEF9CDECFE9FFDDCFEAFF38
:10366000040EE926000EEA22EF8C020EE15C02E273
:10367000E16AE552E16EE552E7CFD9FF1200D9CFFA
:10368000E6FFE1CFD9FF020EE126FD0EDBA407D055
:10369000E66AFE0EDBCFE6FF95DFE552E552FD0E52
:1036A000DBA208D0010EE66EFE0EDBCFE6FF8ADF5E
:1036B000E552E552FE0EDB50016A6A0F006E0F0EF6
:1036C000012200C0DEFF01C0DDFFDECFE9FFDDCF5C
:1036D000EAFFFD0EDBCFEFFF020EE15C02E2E16AE2
:1036E000E552E16EE552E7CFD9FF1200D9CFE6FFF0
:1036F000E1CFD9FF020EE126FE0EDB5020E165C0CE
:10370000E9FF66C0EAFFEE52080EEF6E65C0E9FF02
:1037100066C0EAFF020EE926000EEA22200EEE6ED7
:10372000040EED6E65C0E9FF66C0EAFF8C0EEF6E19
:103730006BC0E9FF6CC0EAFF840EEF6E3DD0FD0E5A
:10374000DB50E824026EFE0EDB50040DF350022421
:10375000040DF3CF00F0F4CF01F0000E0026040EAC
:10376000012200C0DEFF01C0DDFF840E006EDECF4F
:10377000E9FFDDCFEAFF0050EF12FD0EDB50E82439
:10378000026EFE0EDB50040DF3500224010F040DF7
:10379000F3CF00F0F4CF01F0000E0026040E01225A
:1037A00000C0DEFF01C0DDFF840E006EDECFE9FF4A
:1037B000DDCFEAFF0050EF12020EE15C02E2E16AA7
:1037C000E552E16EE552E7CFD9FF1200D9CFE6FF0F
:1037D000E1CFD9FF020EE126FD0EDB500FE0FE0E19
:1037E000EA6ADB34FE0BEA36E96E6B0EE926000E60
:1037F000EA22EECFDEFFEDCFDDFF0ED0FE0EEA6A4D
:10380000DB34FE0BEA36E96E670EE926000EEA228B
:10381000EECFDEFFEDCFDDFFD9CFE9FFDACFEAFF54
:10382000EE50ED1003E1F36AF46A49D0DECFE9FF10
:10383000DDCFEAFF020EE926000EEA22FB0EDBCF07
:10384000EEFFFC0EDBCFEDFFDECFE9FFDDCFEAFFC1
:10385000EE52FA0EDBCFEFFF400E006EDECFE9FF37
:10386000DDCFEAFF0050EF16880E006EDECFE9FFD5
:10387000DDCFEAFF0050EF12FD0EDB500CE0FE0E34
:10388000EA6ADB34FE0BEA36E96E6B0EE926000EBF
:10389000EA22EF740BD0FE0EEA6ADB34FE0BEA3646
:1038A000E96E670EE926000EEA22EF74DECF00F023
:1038B000DDCF01F000C0F3FF01C0F4FF00D0020E25
:1038C000E15C02E2E16AE552E16EE552E7CFD9FF41
:1038D0001200D9CFE6FFE1CFD9FF60A84ED0FE0E8F
:1038E000EA6ADB34FE0BEA36E96E6B0EE926000E5F
:1038F000EA22EE50EFCFEAFFE96E400EEE16EE6AD6
:10390000EE6AEE6AFE0EEA6ADB34FE0BEA36E96E18
:103910006B0EE926000EEA22EE50EFCFEAFFE96EC9
:10392000EE7CFE0EEA6ADB34FE0BEA36E96E6B0EC5
:10393000E926000EEA22EF74400E006EFE0EEA6ADF
:10394000DB34FE0BEA36E96E6B0EE926000EEA2246
:10395000EE50EFCFEAFFE96E0050EF16FE0EEA6A76
:10396000DB34FE0BEA36E96E6B0EE926000EEA2226
:10397000EE50EFCFEAFFE96EEF7CE552E7CFD9FFDB
:103980001200606A646A0001606B00D012000001DE
:10399000605113E1606A646A160E626E9F0E666E75
:1039A0007B0E646ED08EA584A384F28E60B602D0A6
:0C39B0006086FCD70001010E606F120061
:0439BC000501AD6BE9
:1039C0008A888A94010EE66EE0EC26F0E5528A843D
:1039D000010EE66EE0EC26F0E55220D91200990EB9
:1039E000E66E000EE66E23D8E552E552010813E1BB
:1039F0000501AD0506E1ACC5E6FFBAEC23F0E552E2
:103A000009D0020E0501AD5D05E1ACC5E6FF38EC5D
:103A100024F0E5520AD00001996B00019A6B000175
:103A20009B6B00019C6B00019D6BF8D81200D9CFF5
:103A3000E6FFE1CFD9FFE652FD0EDBCFE6FFFE0E3B
:103A4000DBCFE6FF260EE66E3CD9E552E552E552A5
:103A5000DF6EDF040AE1FD0EDBCFE6FFFE0EDBCFFB
:103A6000E6FFDBDAE552E552DF6E76EC23F0DF505D
:103A700000D0E552E552E7CFD9FF1200D9CFE6FFDB
:103A8000E1CFD9FFE652DF6A050EDF5C21E2DF50AD
:103A9000E76EFD0EDBCFE9FFFE0EDBCFEAFFE7505E
:103AA000E926000EEA22EFCF00F0DF50E76EFB0EB2
:103AB000DBCFE9FFFC0EDBCFEAFFE750E926000E83
:103AC000EA22EF50005C02E0000E04D0DF2ADCD7CF
:103AD000010E00D0E552E552E7CFD9FF1200D9CF51
:103AE000E6FFE1CFD9FF8A98010EE66E2CEC27F0B5
:103AF000E552FE0EDB50E8247E0BE76EFE0EE7CFAC
:103B0000DBFFFE0EDBCFE6FFA8EC26F0E552FD0E54
:103B1000DBCFE6FFA8EC26F0E5528A88E552E7CF36
:103B2000D9FF1200D9CFE6FFE1CFD9FF8A98010E65
:103B3000E66E2CEC27F0E552FE0EDB50E8247E0BFF
:103B40008009E76EFE0EE7CFDBFFFE0EDBCFE6FF60
:103B5000A8EC26F0E552F7EC26F00501816F8A8883
:103B60000501815100D0E552E7CFD9FF1200D9CF2E
:103B7000E6FFE1CFD9FFFD0EDBCFE6FFFE0EDBCF88
:103B8000E6FFD0DFE552E552E710E66EFE0EDBCF32
:103B9000E6FFA5DFE552E552E552E7CFD9FF120077
:103BA000D9CFE6FFE1CFD9FFFD0EDB1C006E00C0D0
:103BB000E6FFFE0EDBCFE6FFB5DFE552E552E7CFCD
:103BC00000F00014E66EFE0EDBCFE6FF88DFE55264
:103BD000E552E552E7CFD9FF1200D9CFE6FFE1CF9A
:103BE000D9FFE652140EE66E9DDFE552DF6E030E3E
:103BF000DF1407E1030EE66E140EE66EB8DFE55241
:103C0000E552E552E552E7CFD9FF1200030EE66E0A
:103C1000140EE66EC5DFE552E55212000F0EE66E99
:103C2000010EE66E5CDFE552E552640EE66EE0ECF6
:103C300026F0E552010EE66E75DFE552100B14E03A
:103C400000019F2B000EA023A123A223E8680001FE
:103C50009F1906E1E868A01903E1A15101E1A25111
:103C600002E1000E2DD0E6D78D0EE66E2A0EE66E2E
:103C700036DFE552E5523E0EE66E2B0EE66E2FDF86
:103C8000E552E5521E0EE66E2D0EE66E28DFE55279
:103C9000E552E66A2C0EE66E22DFE552E552400E52
:103CA000E66E150EE66E1BDFE552E5523D0EE66E42
:103CB000110EE66E14DFE552E5528FDF010E00D0E3
:103CC0001200D9CFE6FFE1CFD9FF030EE126070EA0
:103CD000E66E0D0EE66E03DFE552E552FC0EDBCF1D
:103CE000E9FFFD0EDBCFEAFFFE0EDBCFEFFFD95081
:103CF000010FE66E000EDA20E66EFC0EDBCFE6FF6B
:103D0000FD0EDBCFE6FF010EE66EFC0EDBCFE6FF1D
:103D1000FD0EDBCFE6FF0C0EE66E20D8006E080E1F
:103D2000E15E0050DF6EDF040AE1D950010FE96E59
:103D3000DACFEAFF100EEE1801E1ED5001E0DF6A84
:103D4000DF5000D0006E030EE15C02E2E16AE55252
:103D5000E16E0050E552E7CFD9FF1200D9CFE6FF60
:103D6000E1CFD9FF070EE126DF6A010EDB6A020E02
:103D7000DB6AFE0EDB500C0A0CE0020A01E012D0F6
:103D8000DE52120EDD6E100EF36E020EF3CFDBFF6D
:103D90000AD0DE52770EDD6E300EF36E020EF3CFD8
:103DA000DBFF01D000D0010EDB508009E66E020E71
:103DB000E66E95DEE552E552800EE66E040EE66E86
:103DC000EFDEE552E552800EE66E0A0EE66ECFDEBD
:103DD000E552E552E66A010EE66E81DEE552E552F5
:103DE000050EDB6A060EDB6A050EDBCF00F0060E61
:103DF000DBCF01F0FB0EDB50026E036A0250005C69
:103E0000035001581BE2050EDBCF00F0060EDBCF9E
:103E100001F0FC0EDB500024E96EFD0EDB500120AA
:103E2000EA6EEF50E66E090EE66E59DEE552E55297
:103E3000050EDB2A060E01E3DB2AD6D7FE0EDBCF0A
:103E4000E6FF010EE66E4BDEE552E552FE0EDB505C
:103E50000C0807E1800EE66E0D0EE66E88DEE55278
:103E6000E552D00EF36E050EF3CFDBFF070EF36EB7
:103E7000060EF3CFDBFF040EE66E54DEE552E76E6E
:103E8000040EE7CFDBFF050EDB06060E01E2DB06C4
:103E9000D950050FE96EDACFEAFFEE50ED100CE0D5
:103EA000040EDB50010B08E1020EDBCFE6FF040E2F
:103EB000DB50E552E714DFE0800EE66E0D0EE66E95
:103EC0006FDEE552E552D950050FE96EDACFEAFF11
:103ED000EE50ED1001E193D0060EE66E23DEE552C2
:103EE0001B0B01E08BD0010EDF6E010EDBCFE6FF76
:103EF000040EDB50E552E714010B02E0020EDF6E08
:103F0000FE0EDB500C0801E078D00A0EE66E0ADEE9
:103F1000E552E76E040EE7CFDBFF0C0EE66E02DE25
:103F2000E552070BE76E030EE7CFDBFF030EDB5016
:103F300015E0030EDBCFE6FF040EDB04080DF350A3
:103F4000E552E724E66EF70EDBCFE9FFF80EDBCF94
:103F5000EAFFE552E750EE6EED6A0FD0040EDB503B
:103F6000080DF350E66EF70EDBCFE9FFF80EDBCF5E
:103F7000EAFFE552E750EE6EED6A040EDB5005E114
:103F8000010EF36E040EF3CFDBFF040EDB500808C6
:103F900005E2080EF36E040EF3CFDBFF050EDB6ABD
:103FA000060EDB6A050EDBCF00F0060EDBCF01F05C
:103FB000040EDB50026E036A0250005C035001588D
:103FC0001CE2090EE66EAEDDE552E66E050EDBCFB5
:103FD00000F0060EDBCF01F0F90EDB500024E96E95
:103FE000FA0EDB500120EA6EE552E750EF6E050E47
:103FF000DB2A060E01E3DB2AD5D701D0DF6ADF50CA
:1040000000D0006E070EE15C02E2E16AE552E16E6B
:104010000050E552E7CFD9FF1200D9CFE6FFE1CF3C
:10402000D9FF050EE126020EDB6AE66A0D0EE66E8A
:1040300056DDE552E552FD0EDBCFE9FFFE0EDBCF8C
:10404000EAFF930EEF6E010EE76EFD0EDBCFE9FF88
:10405000FE0EDBCFEAFFE750E926000EEA22200E33
:10406000EF6ED950030FE66E000EDA20E66EFD0EFD
:10407000DBCFE6FFFE0EDBCFE6FF020EE66EFD0EA7
:10408000DBCFE6FFFE0EDBCFE6FF0C0EE66E66DE54
:10409000006E080EE15E0050DF6EDF0436E1010EB7
:1040A000DB6A040EF36E010EDBCFF4FFF350F45C19
:1040B00018E2010EDB50E76EFD0EDBCFE9FFFE0ECE
:1040C000DBCFEAFFE750E926000EEA22020EDBCF43
:1040D000E7FFEF50E71A020EE7CFDBFF010EDB2A06
:1040E000E0D7010EDB50E76EFD0EDBCFE9FFFE0EE1
:1040F000DBCFEAFFE750E926000EEA22EF50F36E2D
:10410000020EDB50F35C01E0DF6ADF5000D0006E8E
:10411000050EE15C02E2E16AE552E16E0050E55213
:10412000E7CFD9FF1200D9CFE6FFE1CFD9FF020ECA
:10413000E126040EE66E050EE66E32DDE552E5522E
:10414000800EE66E0A0EE66E12DDE552E552DF6A7B
:10415000FC0EDB50DF5C15E2DF50E76EFD0EDBCFBF
:10416000E9FFFE0EDBCFEAFFE750E926000EEA2268
:10417000EF50E66E090EE66EB2DCE552E552DF2A3C
:10418000E7D7030EE66E010EE66EA9DCE552E552B6
:10419000DF68050EE66EC6DCE552E76E010EE7CF7E
:1041A000DBFFDF06DF5004E0010EDB50040BF1E023
:1041B000220EE66EB7DCE552E66EFA0EDBCFE9FFC3
:1041C000FB0EDBCFEAFFE552E750EF6E210EE66E05
:1041D000A9DCE552E66E010EE76EFA0EDBCFE9FFD1
:1041E000FB0EDBCFEAFFE750E926000EEA22E5529C
:1041F000E750EF6E020EE15C02E2E16AE552E16E29
:10420000E552E7CFD9FF1200D9CFE6FFE1CFD9FFC2
:104210000E0EE126930EF36E050EF3CFDBFF700E4C
:10422000F36E060EF3CFDBFF010EDB6A050EF36EB5
:10423000010EDBCFF4FFF350F45C23E2010EDB5000
:10424000E76EFD0EDBCFE9FFFE0EDBCFEAFFE750A6
:10425000E926000EEA22EF50E66ED950050F006EF7
:10426000DACF01F0010EDB50020F0F010024E96EDE
:10427000000E0120EA6EE552E750EF6E010EDB2AD8
:10428000D5D7D9500C0FE66E000EDA20E66E070E79
:10429000E66ED950050FE66E000EDA20E66E43DFBB
:1042A000006E050EE15E0050D950030FE66E000E61
:1042B000DA20E66ED950050FE66E000EDA20E66EC3
:1042C000090EE66ED950050FE66E000EDA20E66E96
:1042D0000C0EE66E43DD006E080EE15E0050DF6EF0
:1042E000DF0411E1D950030FE96EDACFEAFF180EAF
:1042F000EE1801E1ED5007E1050EDB50E76E020E0E
:10430000E7CFDBFF02D0020EDB6A020EDB5000D0EB
:10431000006E0E0EE15C02E2E16AE552E16E0050D1
:10432000E552E7CFD9FF1200D9CFE6FFE1CFD9FFA1
:10433000100EE126FE0EDB50E76E040EE7CFDBFF2A
:10434000FD0EDB50E76E050EE7CFDBFF030EDB6AE9
:10435000060EF36E030EDBCFF4FFF350F45C23E2A2
:10436000030EDB50E76EFB0EDBCFE9FFFC0EDBCF6D
:10437000EAFFE750E926000EEA22EF50E66ED95038
:10438000040F006EDACF01F0030EDB50020F0F01B5
:104390000024E96E000E0120EA6EE552E750EF6E50
:1043A000030EDB2AD5D7030EDB6A040EF36E030E71
:1043B000DBCFF4FFF350F45C23E2030EDB50E76E37
:1043C000F90EDBCFE9FFFA0EDBCFEAFFE750E92673
:1043D000000EEA22EF50E66ED950040F006EDACFDD
:1043E00001F0030EDB50080F0F010024E96E000EF0
:1043F0000120EA6EE552E750EF6E030EDB2AD5D7B7
:10440000D950010FE66E000EDA20E66ED950040F87
:10441000E66E000EDA20E66E0C0EE66ED950040F42
:10442000E66E000EDA20E66E0E0EE66E97DC006E8B
:10443000080EE15E0050DF6EDF0407E1080EE66E55
:1044400092EC1DF0E552080B01E1DF6ADF5000D06D
:10445000006E100EE15C02E2E16AE552E16E00508E
:10446000E552E7CFD9FF1200D9CFE6FFE1CFD9FF60
:10447000030EE126FC0EDBCFE9FFFD0EDBCFEAFFEA
:10448000300EEF6E010EE76EFC0EDBCFE9FFFD0E86
:10449000DBCFEAFFE750E926000EEA22FE0EDBCF73
:1044A000EFFF020EE76EFC0EDBCF00F0FD0EDBCF60
:1044B00001F0E7500026000E012200C0E6FF01C017
:1044C000E6FF020EE66EFC0EDBCFE6FFFD0EDBCF55
:1044D000E6FF29DE026E050EE15E0250D950010FA3
:1044E000E66E000EDA20E66EFC0EDBCFE6FFFD0E78
:1044F000DBCFE6FF040EE66EFC0EDBCFE6FFFD0E23
:10450000DBCFE6FF0C0EE66E29DC006E080EE15EE6
:104510000050DF6EDF040AE1D950010FE96EDACFF7
:10452000EAFF900EEE1801E1ED5001E0DF6ADF5086
:1045300000D0006E030EE15C02E2E16AE552E16E3A
:104540000050E552E7CFD9FF1200D9CFE6FFE1CF07
:10455000D9FF160EE126A00EF36E040EF3CFDBFF9B
:10456000FE0EDB50E76E050EE7CFDBFFD950060FDE
:10457000E66E000EDA20E66E020EE66ED950040FEB
:10458000E66E000EDA20E66ECEDD006E050EE15E10
:104590000050D950010FE66E000EDA20E66ED950B9
:1045A000040FE66E000EDA20E66E040EE66ED950B9
:1045B000040FE66E000EDA20E66E0C0EE66EAEEC30
:1045C0001EF0006E080EE15E0050DF6EDF040FE1AA
:1045D000D950010FE96EDACFEAFF040EEE1801E1BF
:1045E000ED5005E1040EDB500F0B0A0801E0DF6A15
:1045F000DF046EE1030EDB6A100EF36E030EDBCFF9
:10460000F4FFF350F45C22E2030EDB50E76EFC0E85
:10461000DBCFE9FFFD0EDBCFEAFFE750E926000E16
:10462000EA22EF50E66ED950040F006EDACF01F0A7
:10463000030EDB500F010024E96E000E0120EA6E2C
:10464000E552E750EF6E030EDB2AD6D7D950140F90
:10465000E66E000EDA20E66E100EE66ED950040FFC
:10466000E66E000EDA20E66E5EDD006E050EE15E9F
:104670000050D950010FE66E000EDA20E66ED950D8
:10468000040FE66E000EDA20E66E120EE66ED950CA
:10469000040FE66E000EDA20E66E0C0EE66EAEEC4F
:1046A0001EF0006E080EE15E0050DF6EDF040FE1C9
:1046B000D950010FE96EDACFEAFF040EEE1801E1DE
:1046C000ED5005E1040EDB500F0B0A0801E0DF6A34
:1046D000DF5000D0006E160EE15C02E2E16AE552A6
:1046E000E16E0050E552E7CFD9FF1200D9CFE6FFC7
:1046F000E1CFD9FF060EE126500EF36E020EF3CF86
:10470000DBFF030EDB6AD950040FE66E000EDA20E1
:10471000E66E020EE66ED950020FE66E000EDA204B
:10472000E66E01DD006E050EE15E0050D9CFE6FFBA
:10473000DACFE6FFD950020FE66E000EDA20E66E01
:10474000040EE66ED950020FE66E000EDA20E66E19
:104750000C0EE66EAEEC1EF0006E080EE15E005030
:10476000060EE15C02E2E16AE552E16EE552E7CF56
:10477000D9FF1200D9CFE6FFE1CFD9FF800EE66E58
:10478000050EE66E260EE66E61EC1EF0E552E55271
:10479000E5520501896F800EE66E050EE66E3DDC82
:1047A000E552E5520501896F0501886B050E05018B
:1047B000885D16E205018851EA6A800FE96E050EF0
:1047C000EA22EF50E66E05018851EA6A940FE96E1D
:1047D000000EEA22E552E750EF6E0501882BE6D77E
:1047E000C8D8940EE66E000EE66E0EDDE552E55278
:1047F0000501896F940EE66E000EE66E8E0EE66E73
:10480000000EE66EFE0EDBCFE6FF600EE66E8CDD80
:10481000006E060EE15E00500501896F05018905F5
:1048200022E1BD0EE66E050EE66EFE0EDBCFE6FF64
:104830001BDEE552E552E552CD0EE66E050EE66E44
:10484000FE0EDB28E66E10DEE552E552E552DD0E87
:10485000E66E050EE66EFE0EDB50020FE66E04DE1F
:10486000E552E552E55242DFE552E7CFD9FF1200AB
:10487000D9CFE6FFE1CFD9FF800EE66E050EE66EDA
:10488000260EE66E61EC1EF0E552E552E55205019A
:10489000896F800EE66E050EE66E0DEC20F0E55297
:1048A000E5520501896F0501886B050E0501885DDC
:1048B00016E205018851EA6A800FE96E050EEA22C8
:1048C000EF50E66E05018851EA6A940FE96E000E1A
:1048D000EA22E552E750EF6E0501882BE6D7940EE9
:1048E000E66E000EE66E90DCE552E5520501896F3A
:1048F000940EE66E000EE66E8E0EE66E000EE66E0E
:10490000FE0EDBCFE6FF600EE66E0EDD006E060EDD
:10491000E15E00500501896F0501890525E1FE0E64
:10492000DB500BE0BD0EE66E050EE66EFE0EDBCF35
:10493000E6FF0BDEE552E552E552CD0EE66E050EC2
:10494000E66EFE0EDB28E66E00DEE552E552E5522D
:10495000DD0EE66E050EE66EFE0EDB50020FE66E15
:10496000F4DDE552E552E552C1DEE552E7CFD9FF6D
:104970001200D9CFE6FFE1CFD9FFE652DF6A100E71
:10498000DF5C1AE2DF50EA6ABD0FE96E050EEA222B
:104990007F0EEF6EDF50EA6ACD0FE96E050EEA2258
:1049A0007F0EEF6EDF50EA6ADD0FE96E050EEA2238
:1049B0007F0EEF6EDF2AE3D70501AD690501AC6913
:0A49C000E552E552E7CFD9FF1200DF
:0649CA00D9CFE6FFE1CFAA
:1049D000D9FFA66AFE0EDB50A96EA680A85000D0B3
:1049E000E552E7CFD9FF1200D9CFE6FFE1CFD9FFDB
:1049F000020EE126FE0EDBCFE6FFE7DFE552DE6EBC
:104A0000DD6ADECF00F0DDCF01F000C001F0006A0A
:104A100000C0DEFF01C0DDFFFE0EDB28E66ED5DF45
:104A2000E552DE26000EDD22DECF00F0DDCF01F004
:104A300000C0F3FF01C0F4FF00D0020EE15C02E20F
:104A4000E16AE552E16EE552E7CFD9FF1200D9CF16
:104A5000E6FFE1CFD9FFA66AA684FE0EDB50A96E61
:104A6000FD0EDB50A86E550EA76EAA0EA76EA6828D
:104A7000A1A8FED7A694A6A202D0FDD7FCD7E552E6
:104A8000E7CFD9FF1200D9CFE6FFE1CFD9FFFC0E67
:104A9000DBCF00F0FD0EDBCF01F001C000F0016ABA
:104AA0000050E66EFE0EDBCFE6FFD1DFE552E552A9
:104AB000FC0EDBCFE6FFFE0EDB28E66EC8DFE5521C
:0A4AC000E552E552E7CFD9FF1200DE
:064ACA00040120511F0B46
:104AD000010801E074D00401245101E070D0060EF9
:104AE0000401215D2AE104012351230A25E0010A82
:104AF00013E0030A01E021D0000161050CE100018F
:104B0000820E716F4C0E726F090E0001746F756B1F
:104B10000001C00E736F11D0000161050CE10001AE
:104B2000C70E716F4C0E726F1C0E0001746F756BA7
:104B30000001C00E736F01D000D004012051600B42
:104B4000E842E842E842E842E842010801E037D0A2
:104B5000040121510B0A2DE0080A1EE0090A16E0A3
:104B6000080A07E00B0A04E0080A01E028D027D071
:104B700026D00001FD0E716F050E726F010E00014F
:104B8000746F756B0001C10E736F19D00001800E38
:104B9000736F23C4FDF513D00001FE0E716F050E77
:104BA000726F010E0001746F756B0001810E736FDF
:104BB00006D00001800E736F22C4FEF500D01200F3
:104BC000200EF66E100EF76E000EF86E0001090052
:104BD000F550A86F0900F550A96F03E1A86701D04F
:104BE0003DD00900F550A36F0900F550A46F0900EE
:104BF000F550A56F09000900F550E96E0900F55060
:104C0000EA6E090009000900F550A66F0900F55089
:104C1000A76F09000900F6CFAAF0F7CFABF0F8CFE5
:104C2000ACF0A3C0F6FFA4C0F7FFA5C0F8FF0001D9
:104C3000A65302E1A75307E00900F550EE6EA60760
:104C4000F8E2A707F9D7AAC0F6FFABC0F7FFACC0E0
:0E4C5000F8FF0001A807000EA95BBFD71200F5
:024C5E00120141
:104C6000000200000008D8042F0002000102000129
:104C700009022900010100C03209040000020300FA
:104C80000000092111010001221C000705810340D9
:104C90000001070501034000010403090410034952
:104CA000002D004D0045004400490041001A035505
:104CB00000530042005F004D006900660061007211
:104CC000006500520057000600FF0901A10119010B
:104CD000294015012540750895408100190129409A
:0B4CE0009100C0704C994C9D4CAD4CF5
:044CEC00D9CFE6FF37
:104CF000DACFE6FFE1CFD9FFE2CFDAFF3F0EC716EA
:104D0000C66AFD0EDB50C612FB0EDB50C712FC0E4E
:104D1000DB50030A09E0010A04E0020A06E1C78C3D
:104D200004D0C78CC68801D0C688FD0EDB50050AAA
:104D300003E0010A03E1928A938401D09394938063
:104D40009396C68AE552E5CFDAFFE7CFD9FF120086
:104D5000D9CFE6FFDACFE6FFE1CFD9FFE2CFDAFF26
:104D6000E652C950DF6E9E96C69EFD0EDB50C96EA0
:104D7000C6AE02D0FF0E03D09EA6FED7000EE552AF
:0C4D8000E552E5CFDAFFE7CFD9FF1200C3
:044D8C00FE0EE3CF65
:104D9000E9FFFF0EE3CFEAFFE9CFF3FFEACFF4FF2D
:104DA000FB0EE35003E1FC0EE35009E0FB0EE306CB
:104DB00002E2FC0EE306FD0EE350EE6EF1D71200A8
:104DC000FF0EE3501F6EEF0E01D0F30EE76EE72EDD
:104DD000E7EF26F00C0E1E6EE76AE72EEDEF26F0E9
:0E4DE0001E2EECEF26F01F2EE5EF26F012003F
:024DEE00D9CF1B
:104DF000E6FFDACFE6FFE1CFD9FFE2CFDAFFE652F6
:104E0000C950DF6E9E96C96A9EA6FED7C950E5526C
:0C4E1000E552E5CFDAFFE7CFD9FF120032
:044E1C00000EF36E23
:104E200000EE00F0080E01D81200EA6002D0EE6A2F
:0C4E3000FCD7F350E9601200EE6AFCD7DA
:044E3C0013EE00F081
:104E400023EE00F0F86A1D9CE0EC25F037EC27F02B
:084E50007BEC08F0FBD7120017
:084E5800FF0EE350E84E1200CA
:0E4E6000000000D000D000D0E82EFAD71200DB
:024E6E00120030
:104E7000FFFFFFFFFFFF0000000000000000000038
:054E800000000000002D
:0B4E8500000000000100000000000021
:054E900000000000001D
:020000040030CA
:0100000021DE
:0100010008F6
:010002001FDE
:010003003EBE
:01000500D129
:010006008178
:00000001FF
